:100000000B308A00582B0000FF00030E8301A10073
:100010000A08A0008A010408A2007708A300780853
:10002000A4007908A5007A08A60003170D08031399
:10003000A70003170F080313A80003170C080313E6
:10004000A90003170E080313AA00831383128C3030
:100050008400001C2D280C184E2822088400230838
:10006000F7002408F8002508F9002608FA002708F8
:1000700003178D000313280803178F0003132908A3
:1000800003178C0003132A0803178E00031320089C
:100090008A00210E8300FF0E7F0E09008A110A12CA
:1000A00007290A108A100A11820728340C340134F7
:1000B0000634341431185F280430B106AB283119E6
:1000C0008A283208FB3E03188928053EAC28B80A66
:1000D000B81B6E283808173C031CB8018928B90AD8
:1000E000B91B762839083B3C031CB9018928BA0A98
:1000F000BA1B7E283A08173C031CBA018928BB0AA0
:10010000BB1B86283B083B3C031CBB0189280130F4
:10011000BC06AB28330803199428013A03199C281C
:10012000033A0319A428AB28B50AB51B9B28350848
:10013000173C031CB501AB28B60AB61BA32836082A
:100140003B3C031CB601AB28B70AB71BAB283708EA
:100150003B3C031CB70108000A108A100A118207F1
:1001600067286F2877287F28872834143118BB2800
:100170000430B106F9283119DE283208FB3E031895
:10018000DD28053EFA28B803B81FC8281730B80084
:10019000DD28B903B91FCE283B30B900DD28BA03EA
:1001A000BA1FD4281730BA00DD28BB03BB1FDA28DA
:1001B0003B30BB00DD280130BC06F92833080319A9
:1001C000E828013A0319EE28033A0319F428F9281C
:1001D000B503B51FED281730B500F928B603B61FD3
:1001E000F3283B30B600F928B703B71FF9283B3096
:1001F000B700080000000A148A100A11023E031812
:100200008A0A8200C328C928CF28D528DB280C10E9
:100210008E010B308F00DC308E000000061A23297F
:10022000C00A4008103C031D2229AF032F08033CDD
:1002300003181C290330AF002F0B22293111311074
:10024000B201B30137294008013C031836294008A0
:100250000F3C031C3629AF0A2F08033C031CAF01D7
:100260002F0B362931113110B201B301C001AF0893
:10027000031D452906183E29C40A45294408013CA6
:100280000318442901308706C4012F0BB029861AB0
:100290005529B415C701C20A42080F3C0318542956
:1002A00042080339031959205E294208013C03180A
:1002B0005D2942080F3C03185920C201061B6C2916
:1002C000B415C701C30A43080F3C03186B29430840
:1002D00003390319B52075294308013C0318742913
:1002E00043080F3C0318B520C301861B9029C10A9F
:1002F0004108103C031D8F29311C8F293119882991
:10030000B2033208043C03188729B20131108F2947
:10031000B3033308023C03188F29B3013110B0290D
:100320004108013C0318AF2941080F3C031CAF29C9
:1003300031189C293114AF293119A729B20A320882
:10034000043C0318A6293110B2013115AF29B30AB4
:100350003308023C0318AF293110B3013111C10138
:100360008718B929BE0A3E08143C0318B929871416
:10037000BE010719C229BF0A3F08143C0318C2294D
:100380000715BF012F08033C031DD9298618D12961
:10039000C60AC5014608463C0318D0290714C603FF
:1003A000D929C50AC6014508783C0318D929071080
:1003B000C5030C108A110A122D28CC376132693717
:1003C00067172E170000CD20CE2A4126A0264F22E7
:1003D0004500CC244724541D4F272000CC2447241B
:1003E000541D4F234600D424CD22521D4F272000F8
:1003F000D424CD22521D4F234600D022D2294F278C
:10040000BA1264100000C12AD427CD20D42443108E
:10041000CD27C4220001CC244724541D4F2720009F
:10042000CC244724541D4F234600D424CD22521DF2
:100430004F272000D424CD22521D4F234600D02226
:10044000D2294F27BA1264100001CE244724541039
:10045000CD27C4220001CC244724541D4F2720005F
:10046000CC244724541D4F234600D424CD22521DB2
:100470004F272000D424CD22521D4F234600D022E6
:10048000D2294F27BA1264100001D3225410D42469
:10049000CD22A0264F224500CE2447245410D42438
:1004A000CD225200C32A522945275410D424CD22EC
:1004B00000012010201020102010201020002010FB
:1004C000201020102010201020100000D3225410E3
:1004D000C32A522945275410D424CD220001C8270D
:1004E00055290001CD24CE2AD4220001D322C327CE
:1004F0004E220001D3225410CE2447245410D42479
:10050000CD225200532A412954004F27AF274623BA
:1005100000012010AF27462300014F272F10201085
:10052000000150308400831300080319A42A063008
:10053000F800F701F70B9A2AF80B992A7B30F7009D
:10054000F70BA02A800B972A080083160910831244
:10055000091083168910831289140000D8018316AC
:10056000091183120915B42AB52A0000831608164A
:1005700083125810081A5814831688168312D8103C
:10058000881AD8148316081783125811081B581597
:10059000831688178312D811881BD8158316091162
:1005A00083120911D32AD42A00005808F8007808C9
:1005B000D700D8018316091183120915DF2AE02A12
:1005C00000008316081683125810081A5814831650
:1005D00088168312D810881AD81483160817831225
:1005E0005811081B5815831688178312D811881BB9
:1005F000D8158316091183120911FE2AFF2A00005B
:100600005808F8007808D600570EF700F030F705C4
:1006100077085604F8007808D600D61BA92AD40813
:100620000319172B83160910831209141B2B831629
:100630000910831209100000831689108312891093
:1006400000008316091183120911550ED6000F30D0
:10065000D6055608D70057182F2B0812302B08162E
:10066000831608128312D718372B8812382B881656
:1006700083168812831257193F2B0813402B081733
:10068000831608138312D719472B8813482B881712
:100690008316881300000911831209150330F7002F
:1006A000F70B502B831609118312091155080F39C6
:1006B000D6005608D70057185F2B0812602B081673
:1006C000831608128312D718672B8812682B881696
:1006D00083168812831257196F2B0813702B081773
:1006E000831608138312D719772B8813782B881752
:1006F0008316881300000911831209150330F700CF
:10070000F70B802B831609118312091108000130A1
:10071000AC00831609108312091083168910831206
:10072000891083160911831209112330D0009122F8
:10073000C9014908023C031CCF2B0330D7005718CE
:10074000A32B0812A42B0816831608128312D7189D
:10075000AB2B8812AC2B881683168812831257197C
:10076000B32B0813B42B0817831608138312D71959
:10077000BB2B8813BC2B8817831688130000091124
:10078000831209150330F700F70BC42B83160911E8
:10079000831209110530D0009122C90A992B023029
:1007A000D7005718D52B0812D62B08168316081217
:1007B0008312D718DD2B8812DE2B88168316881239
:1007C00083125719E52B0813E62B08178316081315
:1007D0008312D719ED2B8813EE2B881783168813F5
:1007E00000000911831209150330F700F70BF62BEF
:1007F0008316091183120911C9014908033C031C1E
:100800000A2C49085120CA00D4014A08D500A52263
:10081000C90AFD2B8A150A12932B5108013A0319B4
:100820001B2C033A03191D2C013A0319202C073AFB
:100830000319232C262CD201272C4030D200272C40
:100840001430D200272C5430D200272CD201013092
:100850005002D20752088038D300D4015308D50083
:10086000A52208004F080C3A03193D2C063A03193B
:10087000472C023A03194E2C532CD4010130D500D9
:10088000A5220130AC000230D0009122582CAC0AD5
:100890000130D0002C08D1000D24582CD401103088
:1008A000D500A522582C0130D4004F08D500A52230
:1008B000080094138C11510893000230941B672C8C
:1008C00083161419612C0030111B01308312F800BB
:1008D000080014138316911591196C2C7718911236
:1008E000771C91161116111A732C83121308F80035
:1008F00008005108D2000310D20C7830D205520CF7
:10090000F700F70C3F30F70577085207D30051087E
:100910000F395307F80008005008D100D2015108E0
:10092000093C0318982C0A30D1021030D2079B2CB6
:100930005108D2079C2C8F2C5208F8000800C901DE
:10094000CA01CB01CC01CD01CE01CF018316111418
:100950001118A82CD0308312D1005924D101592468
:10096000831691149118B22CD1308312D1005924DE
:100970000130F700692478087F39D000D10079244C
:100980007808C9000130F700692478087F39D00061
:10099000D10079247808CA000130F700692478086A
:1009A0003F39D000D10079247808CB000130F7001E
:1009B000692478087F39D000D10079247808CC00E8
:1009C0000130F700692478083F39D000D10079243C
:1009D0007808CD000130F700692478081F39D0006D
:1009E000D10079247808CE00F70169247808D00076
:1009F000D10079247808CF00831611151119FE2C27
:100A00000430F700F70B022D052D11141118062DD7
:100A1000D0308312D1005924D10159244908D00083
:100A20008C247808D000D10059244A08D0008C24A6
:100A30007808D000D10059244B08D0008C247808C5
:100A4000D000D10059244C08D0008C247808D00064
:100A5000D10059244D08D0008C247808D000D10052
:100A600059244E08D0008C247808D000D100592495
:100A70004F08D0008C247808D000D1005924831668
:100A800091149118412DD0308312D1005924073090
:100A9000D10059248316111511194C2D83128A1572
:100AA0000A129B2B831611141118542DD030831267
:100AB000D10059240830D10059248316911491187B
:100AC0005F2DD1308312D10059240130F700692401
:100AD0007808B8000130F70069247808B9000130BF
:100AE000F70069247808BA000130F7006924780813
:100AF000BB000130F70069247808781C3C10781896
:100B00003C14831611151119832D83128A150A12AC
:100B1000E42B0B08C9008B13831603178C170C14D6
:100B20000000000083120313C91B8B1703170C0866
:100B30007F390319DD2D0313C90003170D080313B3
:100B4000CA0003170F080313CB004908CF00322453
:100B50004A0803178D0003134B0803178F00031374
:100B60000B08CC008B13831603178C170C14000092
:100B7000000083120313CC1B8B1703170C0D0E0DF3
:100B80007F390319DD2D0313C90003170D08031363
:100B9000CA0003170F080313CB004908CF00322403
:100BA0004A0803178D0003134B0803178F008D0AA3
:100BB00003198F0A0313892D031703130800500824
:100BC000F8014F020318E72D4F08F700F32DF70146
:100BD0000830D100CF0DF70D500877020318F70049
:100BE000F80DD10BEA2D080020304A1E3030CB0022
:100BF0004908F700C91F042EF709F70A7708C9004A
:100C00002D30CB00CA174A144908CF006430D000F9
:100C1000DF257708C90030307807CC004908CF00BD
:100C20000A30D000DF2530307707CE00303078072B
:100C3000CD004B08F70030304C020319232ECA14A4
:100C4000CA1B4A15372E4B08CC002030CB00303061
:100C50004D0203192F2E4A14CA1BCA14372E031D26
:100C60004A14031D372E4C08CD002030CC004A1901
:100C70003E2ECA18412E4A18442E472E4B08CF004C
:100C800032244C08CF0032244D08CF0032244E08C5
:100C9000CF0032240800B418562E3419562E0619E7
:100CA000532EB414552E861D34156C2EB41C602E94
:100CB00086195F2E34195F2E3415BD0A87106C2EED
:100CC000341D6C2E06196C2EB4186C2EB414BD0392
:100CD000BD1F6B2EBD010711061D762E861D762EBB
:100CE000B41C762E341D762EB41034118A150A12D7
:100CF000372C0B08CA008B13831603178C170C14A0
:100D00000000000083120313CA1B8B170318B02EB8
:100D100003170C087F390313CA0003170D080313C8
:100D2000CB0003170F080313CC004A08CF0032246E
:100D30004B0803178D0003134C0803178F00031390
:100D40000B08CD008B13831603178C170C140000AF
:100D5000000083120313CD1B8B17C90BB02ECF2EAF
:100D600003170C0D0E0D7F390313CA0003170D086E
:100D70000313CB0003170F080313CC004A08CF005E
:100D800032244B0803178D0003134C0803178F0000
:100D90008D0A03198F0A03100313C90B792E08005B
:100DA00020304A1E3030CB004908F700C91FE02E22
:100DB000F709F70A7708C9002D30CB00CA174A1483
:100DC0004908CF006430D000DF257708C9003030F3
:100DD0007807CC004908CF000A30D000DF2530303A
:100DE0007707CE0030307807CD004B08F700303061
:100DF0004C020319FF2ECA14CA1B4A15132F4A1995
:100E0000132F4B08CC00CA180A2F30304D0203199B
:100E10000D2F4A14CA1BCA14132F031D4A14031D95
:100E2000132F4C08CD004A191A2FCA181D2F4A1823
:100E3000202F232F4B08CF0032244C08CF00322420
:100E40004D08CF0032244E08CF0032240800053070
:100E5000D0000130D1000D24E33003178D000130A4
:100E60008F00031389250130D0000230D1000D24FA
:100E7000071C422FE93003178D0001308F00031348
:100E80008925492FEE3003178D0001308F000313A1
:100E900089250C30D0000230D1000D243C1C582F85
:100EA000F33003178D0001308F00031389255F2F66
:100EB000F83003178D0001308F00031389250730A8
:100EC000D0000330D1000D24FD3003178D00013018
:100ED0008F00031007300313C90079263D08C900AD
:100EE0001830CA00F4252030CF0032240F30D00053
:100EF0000430D1000D243508C9000130CA00D026C5
:100F00003A30CF0032243608C9000130CA00D0265A
:100F10000A30D00091228A150A12B02D83161114BE
:100F20001118902FD0308312D10059240830D100ED
:100F300059243808D10059243908D10059243A08D5
:100F4000D10059243B08D100592400303C1801300D
:100F5000C900D1005924831611151119AD2F831220
:100F60008A150A12AC2CCB133F30C9058316111415
:100F70001118B82FD0308312D1005924D10159242F
:100F80004B08D0008C247808CC00D10059244A08A2
:100F9000D0008C247808CC00D10059244908D00016
:100FA0008C247808CC00D10059249030D1005924E9
:100FB000831611151119DA2F83128A150A12B62C0D
:10100000B41D7D280330D0000130D1008A110D2499
:101010008A157A3003178D0002308F008A1103136E
:1010200089258A150130D0000230D1008A110D24A3
:101030008A15823003178D0002308F008A11031346
:1010400089258A150F30D0000230D1008A110D2475
:101050008A154530CF008A1132248A154E30CF00D0
:101060008A1132248A154430CF008A1132248A151D
:101070000130D0000330D1008A110D248A153808C0
:10108000C9000130CA008A11D0268A153A30CF0033
:101090008A1132248A153908C9000130CA008A1120
:1010A000D0268A150E30D0000330D1008A110D24CD
:1010B0008A153A08C9000130CA008A11D0268A155B
:1010C0003A30CF008A1132248A153B08C90001301A
:1010D000CA008A11D0268A150830D0000430D10009
:1010E0008A110D248A15853003178D0002308F0078
:1010F0008A11031389258A1518293208FB3E031823
:101100001829053E1B290130D0000330D1008A1177
:101110000D248A152030CF008A1132248A15203000
:10112000CF008A1132248A153A30CF008A11322436
:101130008A153908C9000130CA008A11D0268A15DB
:1011400018290130D0000330D1008A110D248A15EE
:101150003808C9000130CA008A11D0268A153A30F1
:10116000CF008A1132248A152030CF008A11322410
:101170008A152030CF008A1132248A1518290E30A2
:10118000D0000330D1008A110D248A152030CF0001
:101190008A1132248A152030CF008A1132248A1510
:1011A0003A30CF008A1132248A153B08C900013039
:1011B000CA008A11D0268A1518290E30D0000330B3
:1011C000D1008A110D248A153A08C9000130CA00DD
:1011D0008A11D0268A153A30CF008A1132248A1516
:1011E0002030CF008A1132248A152030CF008A1196
:1011F00032248A1518290830D0000430D1008A1111
:101200000D248A153C1C0E29893003178D000230ED
:101210008F008A11031389258A1517298D3003172A
:101220008D0002308F008A11031389258A15182931
:101230008A150A1291290A148A100A118207832832
:10124000A128BF28DD28FB28B41D2E29C70A47087E
:10125000323C031D2D29B411C7013529C70A47089F
:101260001E3C031D3529B415C70131188E29B41D44
:101270006A290430D0000130D1008A110D248A156A
:10128000453003178D0002308F008A110313892522
:101290008A150530D0000330D1008A110D248A153B
:1012A0004C3003178D0002308F008A1103138925FB
:1012B0008A150530D0000430D1008A110D248A151A
:1012C000523003178D0002308F008A1103138925D5
:1012D0008A158D2931197D290530D0000330D100C0
:1012E0008A110D248A15593003178D0002308F00A2
:1012F0008A11031389258A158D290530D000043001
:10130000D1008A110D248A155F3003178D00023039
:101310008F008A11031389258A153E2A31199229D3
:1013200000283E2AB41DFF290330D0000130D1002F
:101330008A110D248A15663003178D0002308F0044
:101340008A11031389258A150130D0000330D1009A
:101350008A110D248A156F3003178D0002308F001B
:101360008A11031389258A150730D0000330D10074
:101370008A110D248A15723003178D0002308F00F8
:101380008A11031389258A150F30D0000330D1004C
:101390008A110D248A15763003178D0002308F00D4
:1013A0008A11031389258A150230D0000430D10038
:1013B0008A110D248A153508C9000130CA008A1126
:1013C000D0268A150930D0000430D1008A110D24AE
:1013D0008A153608C9000130CA008A11D0268A153C
:1013E0001130D0000430D1008A110D248A1537083D
:1013F000C9000130CA008A11D0268A153E2A330856
:101400000319092A013A03191B2A033A03192D2A41
:101410003E2A0230D0000430D1008A110D248A15F2
:101420002030CF008A1132248A152030CF008A1153
:1014300032248A153E2A0930D0000430D1008A11A6
:101440000D248A152030CF008A1132248A152030CD
:10145000CF008A1132248A153E2A1130D000043080
:10146000D1008A110D248A152030CF008A11322430
:101470008A152030CF008A1132248A150A30D00014
:101480008A1191228A158A150A12B02D0430D000D3
:101490000130D1008A110D248A15033003178D0005
:1014A00002308F008A11031389258A150130D0007C
:1014B0000230D1008A110D248A15071C692A0B30CD
:1014C00003178D0002308F008A11031389258A15B6
:1014D000722A103003178D0002308F008A11031317
:1014E00089258A150C30D0000230D1008A110D24D4
:1014F0008A153C1C852A153003178D0002308F0099
:101500008A11031389258A158E2A1A3003178D0034
:1015100002308F008A11031389258A150730D00005
:101520000330D1008A110D248A151F3003178D0056
:1015300002308F00031007300313C9008A11792687
:101540008A153D08C9001830CA008A11F4258A1589
:101550002030CF008A1132248A150F30D000043099
:10156000D1008A110D248A153508C9000130CA003E
:101570008A11D0268A153A30CF008A1132248A1572
:101580003608C9000130CA008A11D0268A150A30EF
:10159000D0008A1191228A158A150A12B02D0630C0
:1015A000D0000130D1008A110D248A15253003178F
:1015B0008D0002308F008A11031389258A150130AE
:1015C000D0000230D1008A110D248A15071CF22A9E
:1015D0002B3003178D0002308F008A1103138925E9
:1015E0008A15FB2A303003178D0002308F008A11D4
:1015F000031389258A150C30D0000230D1008A11DE
:101600000D248A153C1C0E2B353003178D0002303B
:101610008F008A11031389258A15172B3A30031777
:101620008D0002308F008A11031389258A15073037
:10163000D0000330D1008A110D248A153F300317E2
:101640008D0002308F00031007300313C9008A1188
:1016500079268A153D08C9001830CA008A11F42578
:101660008A152030CF008A1132248A150F30D0001D
:101670000430D1008A110D248A153508C9000130C3
:10168000CA008A11D0268A153A30CF008A11322436
:101690008A153608C9000130CA008A11D0268A1579
:1016A0000A30D0008A1191228A158A150A12B02DAB
:1016B00003081F398300FF30AB00AB152B088316DE
:1016C000870083122B162B08831687000C3093009B
:1016D0002830831294008316941314138312AE01DE
:1016E000AD01AF01B0013410B41034110130BD00B0
:1016F000BE01BF01C001C101C201C301C401C501D6
:10170000C601B415C70183161F149F141F159F111E
:1017100007309C00831383123110B1103111B201D4
:10172000B3018A11872B8A150C30CF008A1132241D
:101730008A158A119F2C8A158316111411189E2B55
:10174000D0308312D1008A1159248A15D1018A110F
:1017500059248A15831691149118AC2BD130831219
:10176000D1008A1159248A150130F7008A116924A1
:101770008A1578087F39C900D1008A1179248A1521
:101780007808B7000130F7008A1169248A157808B3
:101790007F39C900D1008A1179248A157808B600EA
:1017A000F7018A1169248A1578083F39C900D100E8
:1017B0008A1179248A157808B50083161115111934
:1017C000DF2B8A118312522D8A15FF308316860073
:1017D000F83087058312071087140715A53090008D
:1017E0008E010B308F00DC308E0000000C10831651
:1017F0000C14C03083128B040630D0000230D100AC
:101800008A110D248A15DD3003178D0001308F00F9
:101810008A11031389258A15C8014808633C031CF3
:101820002B2C0930D0000330D1008A110D248A15E9
:101830004808C9001130CA008A11F4258A152530DC
:10184000CF008A1132248A151430D0008A119122D7
:101850008A15C80A0D2CC830D0008A1191228A1529
:101860000C30CF008A1132248A158A114B2E8A152A
:101870002F0830020319432C0C30CF008A11322478
:101880008A152F08B0002F08FC3E0318B02D043E27
:10189000B22D8316111411184B2CD0308312D100A5
:1018A0008A1159248A15D1018A1159248A1583165F
:1018B00091149118592CD1308312D1008A115924D6
:1018C0008A150130F7008A1169248A1578087F3952
:1018D000C900D1008A1179248A157808B70001302F
:1018E000F7008A1169248A1578087F39C900D10068
:1018F0008A1179248A157808B600F7018A116924BB
:101900008A1578083F39C900D1008A1179248A15CF
:101910007808B5008316111511198C2C8A118312C1
:10192000272F8A15B02DF701B118771431087706E3
:1019300001390319A42C0C30CF008A1132248A15E6
:10194000311CB1103118B114311CB82C341CB82C16
:101950003119AE2C8A118E2F8A15B72C3508C90083
:101960003608CA003708CB008A11B32F8A15341005
:10197000831611141118BA2CD0308312D1008A1199
:1019800059248A15D1018A1159248A158316911474
:101990009118C82CD1308312D1008A1159248A158C
:1019A0000130F7008A1169248A1578087F39C90047
:1019B000D1008A1179248A157808B7000130F70020
:1019C0008A1169248A1578087F39C900D1008A11E3
:1019D00079248A157808B600F7018A1169248A15D6
:1019E00078083F39C900D1008A1179248A1578080E
:1019F000B500831611151119FB2C83122429B02D63
:101A0000BD1B082D3D08003C0318082D0714092DA7
:101A100007103C1C152D35083802031D152D3608FE
:101A20003902031D152D0330AF0083161114111850
:101A3000172DD0308312D1008A1159248A15D10173
:101A40008A1159248A15831691149118252DD130A5
:101A50008312D1008A1159248A150130F7008A11A6
:101A600069248A1578087F39C900D1008A11792440
:101A70008A157808B7000130F7008A1169248A15A1
:101A800078087F39C900D1008A1179248A1578082D
:101A9000B600F7018A1169248A1578083F39C90010
:101AA000D1008A1179248A157808B500831611159A
:101AB0001119582D8312462AB02D3C1C692D35086A
:101AC0003A02031D692D36083B02031D692D0230C1
:101AD000AF008316111411186B2DD0308312D10072
:101AE0008A1159248A15D1018A1159248A1583161D
:101AF00091149118792DD1308312D1008A11592473
:101B00008A150130F7008A1169248A1578087F390F
:101B1000C900D1008A1179248A157808B7000130EC
:101B2000F7008A1169248A1578087F39C900D10025
:101B30008A1179248A157808B600F7018A11692478
:101B40008A1578083F39C900D1008A1179248A158D
:101B50007808B500831611151119AC2D8312CF2A00
:101B6000352C63000A148A100A158207492C932C1D
:041B7000002D5D2DBA
:02400E003A3F37
:00000001FF
;PIC16F877A
;CRC=32EB  CREATED="15-Dec-22 01:13"
