:100000000B308A00962B0000FF00030E8301A10035
:100010000A08A0008A010408A2007708A300780853
:10002000A4007908A5007A08A60003170D08031399
:10003000A70003170F080313A80003170C080313E6
:10004000A90003170E080313AA00831383128C3030
:100050008400001C2D280C184E2822088400230838
:10006000F7002408F8002508F9002608FA002708F8
:1000700003178D000313280803178F0003132908A3
:1000800003178C0003132A0803178E00031320089C
:100090008A00210E8300FF0E7F0E09008A110A12CA
:1000A00007290A108A100A11820728340C340134F7
:1000B0000634341431185F280430B106AB283119E6
:1000C0008A283208FB3E03188928053EAC28B80A66
:1000D000B81B6E283808173C031CB8018928B90AD8
:1000E000B91B762839083B3C031CB9018928BA0A98
:1000F000BA1B7E283A08173C031CBA018928BB0AA0
:10010000BB1B86283B083B3C031CBB0189280130F4
:10011000BC06AB28330803199428013A03199C281C
:10012000033A0319A428AB28B50AB51B9B28350848
:10013000173C031CB501AB28B60AB61BA32836082A
:100140003B3C031CB601AB28B70AB71BAB283708EA
:100150003B3C031CB70108000A108A100A118207F1
:1001600067286F2877287F28872834143118BB2800
:100170000430B106F9283119DE283208FB3E031895
:10018000DD28053EFA28B803B81FC8281730B80084
:10019000DD28B903B91FCE283B30B900DD28BA03EA
:1001A000BA1FD4281730BA00DD28BB03BB1FDA28DA
:1001B0003B30BB00DD280130BC06F92833080319A9
:1001C000E828013A0319EE28033A0319F428F9281C
:1001D000B503B51FED281730B500F928B603B61FD3
:1001E000F3283B30B600F928B703B71FF9283B3096
:1001F000B700080000000A148A100A11023E031812
:100200008A0A8200C328C928CF28D528DB280C10E9
:100210008E010B308F00DC308E000000061A23297F
:10022000C00A4008103C031D2229AF032F08033CDD
:1002300003181C290330AF002F0B22293111311074
:10024000B201B30137294008013C031836294008A0
:100250000F3C031C3629AF0A2F08033C031CAF01D7
:100260002F0B362931113110B201B301C001AF0893
:10027000031D452906183E29C40A45294408013CA6
:100280000318442901308706C4012F0BB029861AB0
:100290005529B415C701C20A42080F3C0318542956
:1002A00042080339031959205E294208013C03180A
:1002B0005D2942080F3C03185920C201061B6C2916
:1002C000B415C701C30A43080F3C03186B29430840
:1002D00003390319B52075294308013C0318742913
:1002E00043080F3C0318B520C301861B9029C10A9F
:1002F0004108103C031D8F29311C8F293119882991
:10030000B2033208043C03188729B20131108F2947
:10031000B3033308023C03188F29B3013110B0290D
:100320004108013C0318AF2941080F3C031CAF29C9
:1003300031189C293114AF293119A729B20A320882
:10034000043C0318A6293110B2013115AF29B30AB4
:100350003308023C0318AF293110B3013111C10138
:100360008718B929BE0A3E08143C0318B929871416
:10037000BE010719C229BF0A3F08143C0318C2294D
:100380000715BF012F08033C031DD9298618D12961
:10039000C60AC5014608463C0318D0290714C603FF
:1003A000D929C50AC6014508783C0318D929071080
:1003B000C5030C108A110A122D28CC376132693717
:1003C00067172E170000CD20CE2A4126A0264F22E7
:1003D0004500CC244724541D4F272000CC2447241B
:1003E000541D4F234600D424CD22521D4F272000F8
:1003F000D424CD22521D4F234600D022D2294F278C
:10040000BA1264100000C12AD427CD20D42443108E
:10041000CD27C4220001CC244724541D4F2720009F
:10042000CC244724541D4F234600D424CD22521DF2
:100430004F272000D424CD22521D4F234600D02226
:10044000D2294F27BA1264100001CE244724541039
:10045000CD27C4220001CC244724541D4F2720005F
:10046000CC244724541D4F234600D424CD22521DB2
:100470004F272000D424CD22521D4F234600D022E6
:10048000D2294F27BA1264100001D3225410D42469
:10049000CD22A0264F224500CE2447245410D42438
:1004A000CD225200C32A522945275410D424CD22EC
:1004B00000012010201020102010201020002010FB
:1004C000201020102010201020100000D3225410E3
:1004D000C32A522945275410D424CD220001C8270D
:1004E00055290001CD24CE2AD4220001D322C327CE
:1004F0004E220001D3225410CE2447245410D42479
:10050000CD225200532A412954004F27AF274623BA
:1005100000012010AF27462300014F272F10201085
:10052000000150308400831300080319A42A063008
:10053000F800F701F70B9A2AF80B992A7B30F7009D
:10054000F70BA02A800B972A080083160910831244
:10055000091083168910831289140000D8018316AC
:10056000091183120915B42AB52A0000831608164A
:1005700083125810081A5814831688168312D8103C
:10058000881AD8148316081783125811081B581597
:10059000831688178312D811881BD8158316091162
:1005A00083120911D32AD42A00005808F8007808C9
:1005B000D700D8018316091183120915DF2AE02A12
:1005C00000008316081683125810081A5814831650
:1005D00088168312D810881AD81483160817831225
:1005E0005811081B5815831688178312D811881BB9
:1005F000D8158316091183120911FE2AFF2A00005B
:100600005808F8007808D600570EF700F030F705C4
:1006100077085604F8007808D600D61BA92AD40813
:100620000319172B83160910831209141B2B831629
:100630000910831209100000831689108312891093
:1006400000008316091183120911550ED6000F30D0
:10065000D6055608D70057182F2B0812302B08162E
:10066000831608128312D718372B8812382B881656
:1006700083168812831257193F2B0813402B081733
:10068000831608138312D719472B8813482B881712
:100690008316881300000911831209150330F7002F
:1006A000F70B502B831609118312091155080F39C6
:1006B000D6005608D70057185F2B0812602B081673
:1006C000831608128312D718672B8812682B881696
:1006D00083168812831257196F2B0813702B081773
:1006E000831608138312D719772B8813782B881752
:1006F0008316881300000911831209150330F700CF
:10070000F70B802B831609118312091108000130A1
:10071000AC00831609108312091083168910831206
:10072000891083160911831209112330D0009122F8
:10073000C9014908023C031CCF2B0330D7005718CE
:10074000A32B0812A42B0816831608128312D7189D
:10075000AB2B8812AC2B881683168812831257197C
:10076000B32B0813B42B0817831608138312D71959
:10077000BB2B8813BC2B8817831688130000091124
:10078000831209150330F700F70BC42B83160911E8
:10079000831209110530D0009122C90A992B023029
:1007A000D7005718D52B0812D62B08168316081217
:1007B0008312D718DD2B8812DE2B88168316881239
:1007C00083125719E52B0813E62B08178316081315
:1007D0008312D719ED2B8813EE2B881783168813F5
:1007E00000000911831209150330F700F70BF62BEF
:1007F0008316091183120911C9014908033C031C1E
:100800000A2C49085120CA00D4014A08D500A52263
:10081000C90AFD2B8A150A12D12B5108013A031976
:100820001B2C033A03191D2C013A0319202C073AFB
:100830000319232C262CD201272C4030D200272C40
:100840001430D200272C5430D200272CD201013092
:100850005002D20752088038D300D4015308D50083
:10086000A52208004F080C3A03193D2C063A03193B
:10087000472C023A03194E2C532CD4010130D500D9
:10088000A5220130AC000230D0009122582CAC0AD5
:100890000130D0002C08D1000D24582CD401103088
:1008A000D500A522582C0130D4004F08D500A52230
:1008B000080094138C11510893000230941B672C8C
:1008C00083161419612C0030111B01308312F800BB
:1008D000080014138316911591196C2C7718911236
:1008E000771C91161116111A732C83121308F80035
:1008F0000800510EF7000F30F7057708D3005308B2
:10090000D4000A30D500F701F80154080310551837
:10091000F707F70CF80CD518F707F70CF80C551972
:10092000F707F70CF80CD519F707F70CF80C551A60
:10093000F707F70CF80CD51AF707F70CF80C551B4E
:10094000F707F70CF80CD51BF707F70CF80C78082D
:10095000D20051080F397807F80008005308F80151
:1009600052020318B62C5208F700C22CF7010830C7
:10097000D400D20DF70D530877020318F700F80DD5
:10098000D40BB92C08005008D2000A30D300AE2492
:10099000780ED100F030D1055008D2000A30D300D3
:1009A000AE2477085107F8000800C901CA01CB013D
:1009B000CC01CD01CE01CF01831611141118DE2C0C
:1009C000D0308312D1005924D101592483169114B7
:1009D0009118E82CD1308312D10059240130F7004E
:1009E000692478087F39D000D10079247808C900BB
:1009F0000130F700692478087F39D000D1007924CC
:100A00007808CA000130F700692478083F39D0001F
:100A1000D10079247808CB000130F70069247808E8
:100A20007F39D000D10079247808CC000130F7005C
:100A3000692478083F39D000D10079247808CD00A6
:100A40000130F700692478081F39D000D1007924DB
:100A50007808CE00F70169247808D000D100792405
:100A60007808CF00831611151119342D0430F700C2
:100A7000F70B382D3B2D111411183C2DD03083125B
:100A8000D1005924D10159244908D000C324780841
:100A9000D000D10059244A08D000C3247808D000DF
:100AA000D10059244B08D000C3247808D000D100CD
:100AB00059244C08D000C3247808D000D100592410
:100AC0004D08D000C3247808D000D10059244E0826
:100AD000D000C3247808D000D10059244F08D0009A
:100AE000C3247808D000D10059248316911491189A
:100AF000772DD0308312D10059240730D1005924EA
:100B0000831611151119822D83128A150A12D92BF9
:100B10008316111411188A2DD0308312D100592454
:100B20000830D1005924831691149118952DD13095
:100B30008312D10059240130F70069247808B800E5
:100B40000130F70069247808B9000130F700692402
:100B50007808BA000130F70069247808BB0001303A
:100B6000F70069247808781C3C1078183C14831628
:100B700011151119B92D83128A150A12222C0B088E
:100B8000C9008B13831603178C170C140000000088
:100B900083120313C91B8B1703170C087F39031922
:100BA000132E0313C90003170D080313CA000317FC
:100BB0000F080313CB004908CF0032244A0803175B
:100BC0008D0003134B0803178F0003130B08CC0091
:100BD0008B13831603178C170C140000000083126C
:100BE0000313CC1B8B1703170C0D0E0D7F39031944
:100BF000132E0313C90003170D080313CA000317AC
:100C00000F080313CB004908CF0032244A0803170A
:100C10008D0003134B0803178F008D0A03198F0AE9
:100C20000313BF2D03170313080020304A1E303072
:100C3000CB004908F700C91F252EF709F70A7708E6
:100C4000C9002D30CB00CA174A144908D2006430BD
:100C5000D300AE247708C90030307807CC004908AB
:100C6000D2000A30D300AE2430307707CE003030C7
:100C70007807CD004B08F70030304C020319442EA2
:100C8000CA14CA1B4A15582E4B08CC002030CB0082
:100C900030304D020319502E4A14CA1BCA14582E64
:100CA000031D4A14031D582E4C08CD002030CC00E3
:100CB0004A195F2ECA18622E4A18652E682E4B08F4
:100CC000CF0032244C08CF0032244D08CF0032240C
:100CD0004E08CF0032240800B418772E3419772E2E
:100CE0000619742EB414762E861D34158D2EB41C60
:100CF000812E8619802E3419802E3415BD0A871056
:100D00008D2E341D8D2E06198D2EB4188D2EB414F3
:100D1000BD03BD1F8C2EBD010711061D972E861D1C
:100D2000972EB41C972E341D972EB41034118A15AB
:100D30000A12752C0B08CA008B13831603178C1725
:100D40000C140000000083120313CA1B8B17031836
:100D5000D12E03170C087F390313CA0003170D089F
:100D60000313CB0003170F080313CC004A08CF006E
:100D700032244B0803178D0003134C0803178F0010
:100D800003130B08CD008B13831603178C170C1459
:100D90000000000083120313CD1B8B17C90BD12E4B
:100DA000F02E03170C0D0E0D7F390313CA00031725
:100DB0000D080313CB0003170F080313CC004A08D8
:100DC000CF0032244B0803178D0003134C08031780
:100DD0008F008D0A03198F0A03100313C90B9A2E73
:100DE000080020304A1E3030CB004908F700C91FE8
:100DF000012FF709F70A7708C9002D30CB00CA1771
:100E00004A144908D2006430D300AE247708C900E0
:100E100030307807CC004908D2000A30D300AE2425
:100E200030307707CE0030307807CD004B08F70020
:100E300030304C020319202FCA14CA1B4A15342F14
:100E40004A19342F4B08CC00CA182B2F30304D02D2
:100E500003192E2F4A14CA1BCA14342F031D4A1417
:100E6000031D342F4C08CD004A193B2FCA183E2FC2
:100E70004A18412F442F4B08CF0032244C08CF0092
:100E800032244D08CF0032244E08CF00322408000F
:100E90000530D0000130D1000D24E33003178D0060
:100EA00001308F000313BF250130D0000230D10084
:100EB0000D24071C632FE93003178D0001308F00CC
:100EC0000313BF256A2FEE3003178D0001308F000A
:100ED0000313BF250C30D0000230D1000D243C1C80
:100EE000792FF33003178D0001308F000313BF25D6
:100EF000802FF83003178D0001308F000313BF25BA
:100F00000730D0000330D1000D24FD3003178D00D1
:100F100001308F00031007300313C9009A263D08E3
:100F2000C9001830CA0015262030CF0032240F30F7
:100F3000D0000430D1000D243508C9000130CA00AA
:100F4000F1263A30CF0032243608C9000130CA00F9
:100F5000F1260A30D00091228A150A12EC2D831650
:100F600011141118B12FD0308312D1005924083038
:100F7000D10059243808D10059243908D100592406
:100F80003A08D10059243B08D100592400303C18BC
:100F90000130C900D1005924831611151119CE2F23
:080FA00083128A150A12EA2CE3
:10100000CB133F30C9058316111411180528D030B1
:101010008312D1008A1159248A15D1018A115924C9
:101020008A154B08D0008A11C3248A157808CC0091
:10103000D1008A1159248A154A08D0008A11C32484
:101040008A157808CC00D1008A1159248A154908DC
:10105000D0008A11C3248A157808CC00D1008A11E7
:1010600059248A159030D1008A1159248A15831683
:1010700011151119392883128A150A12F32CB41D7F
:10108000BC280330D0000130D1008A110D248A150C
:101090007A3003178D0002308F008A110313BF25A9
:1010A0008A150130D0000230D1008A110D248A1532
:1010B000823003178D0002308F008A110313BF2581
:1010C0008A150F30D0000230D1008A110D248A1504
:1010D0004530CF008A1132248A154E30CF008A1154
:1010E00032248A154430CF008A1132248A15013007
:1010F000D0000330D1008A110D248A153808C900A8
:101100000130CA008A11F1268A153A30CF008A11BF
:1011100032248A153908C9000130CA008A11F12623
:101120008A150E30D0000330D1008A110D248A15A3
:101130003A08C9000130CA008A11F1268A153A30EE
:10114000CF008A1132248A153B08C9000130CA0039
:101150008A11F1268A150830D0000430D1008A1196
:101160000D248A15853003178D0002308F008A11F7
:101170000313BF258A1556293208FB3E031856294A
:10118000053E59290130D0000330D1008A110D24C9
:101190008A152030CF008A1132248A152030CF00E2
:1011A0008A1132248A153A30CF008A1132248A15E6
:1011B0003908C9000130CA008A11F1268A1556295A
:1011C0000130D0000330D1008A110D248A1538086F
:1011D000C9000130CA008A11F1268A153A30CF00C1
:1011E0008A1132248A152030CF008A1132248A15C0
:1011F0002030CF008A1132248A1556290E30D000B3
:101200000330D1008A110D248A152030CF008A11B5
:1012100032248A152030CF008A1132248A153A30C0
:10122000CF008A1132248A153B08C9000130CA0058
:101230008A11F1268A1556290E30D0000330D100CC
:101240008A110D248A153A08C9000130CA008A1192
:10125000F1268A153A30CF008A1132248A152030BF
:10126000CF008A1132248A152030CF008A1132240F
:101270008A1556290830D0000430D1008A110D2477
:101280008A153C1C4D29893003178D0002308F00D0
:101290008A110313BF258A1556298D3003178D0037
:1012A00002308F008A110313BF258A158A150A128E
:1012B000CF290A148A100A118207C228E028FE28C2
:1012C0001C293A29B41D6C29C70A4708323C031D62
:1012D0006B29B411C7017329C70A47081E3C031DB7
:1012E0007329B415C7013118CC29B41DA8290430BD
:1012F000D0000130D1008A110D248A154530031722
:101300008D0002308F008A110313BF258A15053026
:10131000D0000330D1008A110D248A154C300317F8
:101320008D0002308F008A110313BF258A15053006
:10133000D0000430D1008A110D248A1552300317D1
:101340008D0002308F008A110313BF258A15CB2927
:101350003119BB290530D0000330D1008A110D248A
:101360008A15593003178D0002308F008A1103133C
:10137000BF258A15CB290530D0000430D1008A1151
:101380000D248A155F3003178D0002308F008A11FB
:101390000313BF258A157C2A3119D0293F287C2ABE
:1013A000B41D3D2A0330D0000130D1008A110D2434
:1013B0008A15663003178D0002308F008A110313DF
:1013C000BF258A150130D0000330D1008A110D24C9
:1013D0008A156F3003178D0002308F008A110313B6
:1013E000BF258A150730D0000330D1008A110D24A3
:1013F0008A15723003178D0002308F008A11031393
:10140000BF258A150F30D0000330D1008A110D247A
:101410008A15763003178D0002308F008A1103136E
:10142000BF258A150230D0000430D1008A110D2466
:101430008A153508C9000130CA008A11F1268A15BB
:101440000930D0000430D1008A110D248A153608E5
:10145000C9000130CA008A11F1268A151130D00066
:101460000430D1008A110D248A153708C9000130D3
:10147000CA008A11F1268A157C2A33080319472AE3
:10148000013A0319592A033A03196B2A7C2A0230BC
:10149000D0000430D1008A110D248A152030CF00ED
:1014A0008A1132248A152030CF008A1132248A15FD
:1014B0007C2A0930D0000430D1008A110D248A150D
:1014C0002030CF008A1132248A152030CF008A11B3
:1014D00032248A157C2A1130D0000430D1008A11C0
:1014E0000D248A152030CF008A1132248A1520302D
:1014F000CF008A1132248A150A30D0008A11912235
:101500008A158A150A12EC2D0430D0000130D10062
:101510008A110D248A15033003178D0002308F00C5
:101520008A110313BF258A150130D0000230D10083
:101530008A110D248A15071CA72A0B3003178D006A
:1015400002308F008A110313BF258A15B02A10308C
:1015500003178D0002308F008A110313BF258A15EF
:101560000C30D0000230D1008A110D248A153C1CA9
:10157000C32A153003178D0002308F008A11031320
:10158000BF258A15CC2A1A3003178D0002308F0030
:101590008A110313BF258A150730D0000330D1000C
:1015A0008A110D248A151F3003178D0002308F0019
:1015B000031007300313C9008A119A268A153D08C3
:1015C000C9001830CA008A1115268A152030CF00AC
:1015D0008A1132248A150F30D0000430D1008A11CC
:1015E0000D248A153508C9000130CA008A11F12678
:1015F0008A153A30CF008A1132248A153608C9007C
:101600000130CA008A11F1268A150A30D0008A11E9
:1016100091228A158A150A12EC2D0630D00001306D
:10162000D1008A110D248A15253003178D00023050
:101630008F008A110313BF258A150130D0000230B4
:10164000D1008A110D248A15071C302B2B3003176B
:101650008D0002308F008A110313BF258A15392BA4
:10166000303003178D0002308F008A110313BF251D
:101670008A150C30D0000230D1008A110D248A1551
:101680003C1C4C2B353003178D0002308F008A1123
:101690000313BF258A15552B3A3003178D000230EE
:1016A0008F008A110313BF258A150730D00003303D
:1016B000D1008A110D248A153F3003178D000230A6
:1016C0008F00031007300313C9008A119A268A1568
:1016D0003D08C9001830CA008A1115268A15203025
:1016E000CF008A1132248A150F30D0000430D10087
:1016F0008A110D248A153508C9000130CA008A11E3
:10170000F1268A153A30CF008A1132248A1536081C
:10171000C9000130CA008A11F1268A150A30D000AA
:101720008A1191228A158A150A12EC2D03081F3995
:101730008300FF30AB00AB152B08831687008312A4
:101740002B162B08831687000C3093002830831249
:1017500094008316941314138312AE01AD01AF01EC
:10176000B0013410B41034110130BD00BE01BF010E
:10177000C001C101C201C301C401C501C601B41544
:10178000C70183161F149F141F159F1107309C005B
:10179000831383123110B1103111B201B3018A11D8
:1017A000872B8A150C30CF008A1132248A158A11B2
:1017B000D52C8A15831611141118DC2BD030831206
:1017C000D1008A1159248A15D1018A1159248A1508
:1017D000831691149118EA2BD1308312D1008A110B
:1017E00059248A150130F7008A1169248A1578086E
:1017F0007F39C900D1008A1179248A157808B70089
:101800000130F7008A1169248A1578087F39C900E8
:10181000D1008A1179248A157808B600F7018A1157
:1018200069248A1578083F39C900D1008A117924C2
:101830008A157808B5008316111511191D2C8A1107
:101840008312882D8A15FF3083168600F8308705AD
:101850008312071087140715A53090008E010B30F6
:101860008F00DC308E0000000C1083160C14C0308A
:1018700083128B040630D0000230D1008A110D246F
:101880008A15DD3003178D0001308F008A11031394
:10189000BF258A15C8014808633C031C692C093020
:1018A000D0000330D1008A110D248A154808C900E0
:1018B0001130CA008A1115268A152530CF008A11E9
:1018C00032248A151430D0008A1191228A15C80A50
:1018D0004B2CC830D0008A1191228A150C30CF00D1
:1018E0008A1132248A158A116C2E8A152F0830022B
:1018F0000319812C0C30CF008A1132248A152F084D
:10190000B0002F08FC3E0318EC2D043EEE2D83168C
:1019100011141118892CD0308312D1008A11592446
:101920008A15D1018A1159248A15831691149118A8
:10193000972CD1308312D1008A1159248A15013095
:10194000F7008A1169248A1578087F39C900D10007
:101950008A1179248A157808B7000130F7008A11B6
:1019600069248A1578087F39C900D1008A11792441
:101970008A157808B600F7018A1169248A15780853
:101980003F39C900D1008A1179248A157808B50039
:10199000831611151119CA2C8A118312482F8A1522
:1019A000EC2DF701B11877143108770601390319C6
:1019B000E22C0C30CF008A1132248A15311CB11070
:1019C0003118B114311CF42C341CF42C3119EC2CCA
:1019D0008A11AF2F8A15F32C3508C9003608CA00C2
:1019E0003708CB0000283410831611141118F62C78
:1019F000D0308312D1008A1159248A15D1018A115D
:101A000059248A15831691149118042DD13083120C
:101A1000D1008A1159248A150130F7008A116924EE
:101A20008A1578087F39C900D1008A1179248A156E
:101A30007808B7000130F7008A1169248A15780800
:101A40007F39C900D1008A1179248A157808B60037
:101A5000F7018A1169248A1578083F39C900D10035
:101A60008A1179248A157808B50083161115111981
:101A7000372D83126229EC2DBD1B442D3D08003CFF
:101A80000318442D0714452D07103C1C512D350813
:101A90003802031D512D36083902031D512D033024
:101AA000AF00831611141118532DD0308312D100BA
:101AB0008A1159248A15D1018A1159248A1583164D
:101AC00091149118612DD1308312D1008A115924BB
:101AD0008A150130F7008A1169248A1578087F3940
:101AE000C900D1008A1179248A157808B70001301D
:101AF000F7008A1169248A1578087F39C900D10056
:101B00008A1179248A157808B600F7018A116924A8
:101B10008A1578083F39C900D1008A1179248A15BD
:101B20007808B500831611151119942D8312842A93
:101B3000EC2D3C1CA52D35083A02031DA52D3608B9
:101B40003B02031DA52D0230AF008316111411189E
:101B5000A72DD0308312D1008A1159248A15D101C2
:101B60008A1159248A15831691149118B52DD130F4
:101B70008312D1008A1159248A150130F7008A1185
:101B800069248A1578087F39C900D1008A1179241F
:101B90008A157808B7000130F7008A1169248A1580
:101BA00078087F39C900D1008A1179248A1578080C
:101BB000B600F7018A1169248A1578083F39C900EF
:101BC000D1008A1179248A157808B5008316111579
:101BD0001119E82D83120D2B732C63000A148A103F
:0C1BE0000A158207872CD12C3C2D992D72
:02400E003A3F37
:00000001FF
;PIC16F877A
;CRC=9D89  CREATED="26-Dec-22 21:13"
