:100000000B308A004E2B0000FF00030E8301A1007D
:100010000A08A0008A010408A2007708A300780853
:10002000A4007908A5007A08A60003170D08031399
:10003000A70003170F080313A80003170C080313E6
:10004000A90003170E080313AA00831383128C3030
:100050008400001C2D280C184E2822088400230838
:10006000F7002408F8002508F9002608FA002708F8
:1000700003178D000313280803178F0003132908A3
:1000800003178C0003132A0803178E00031320089C
:100090008A00210E8300FF0E7F0E09008A110A12CA
:1000A00016290A108A100A11820728340C340134E8
:1000B0000634B2185E280130B206AA283218892800
:1000C0003308FB3E03188828053EAB28B90AB91B44
:1000D0006D283908173C031CB9018828BA0ABA1BD5
:1000E00075283A083B3C031CBA018828BB0ABB1B95
:1000F0007D283B08173C031CBB018828BC0ABC1B9D
:1001000085283C083B3C031CBC0188280130BD0607
:10011000AA28340803199328013A03199B28033AA3
:100120000319A328AA28B60AB61B9A283608173C32
:10013000031CB601AA28B70AB71BA22837083B3C04
:10014000031CB701AA28B80AB81BAA2838083B3CE8
:10015000031CB80108000A108A100A1182076628D9
:100160006E2876287E2886285808F801570203183A
:10017000BC285708F700C828F7010830D900D70D68
:10018000F70D580877020318F700F80DD90BBF28B0
:100190000800B218CE280130B2060C293218F12816
:1001A0003308FB3E0318F028053E0D29B903B91F9B
:1001B000DB281730B900F028BA03BA1FE1283B301A
:1001C000BA00F028BB03BB1FE7281730BB00F0289C
:1001D000BC03BC1FED283B30BC00F0280130BD063D
:1001E0000C2934080319FB28013A03190129033AA1
:1001F000031907290C29B603B61F00291730B600CA
:100200000C29B703B71F06293B30B7000C29B803E8
:10021000B81F0C293B30B80008000A148A100A11D4
:100220008207D628DC28E228E828EE280C108E0168
:10023000CF308F002C308E00000083160510013067
:1002400083128506061A3529C10A4108023C031D9E
:100250003429B00A3008033C031CB001300B3429A8
:100260003210B210B301B4013629C101B008031D28
:10027000492906184829C50A4508023C031D472993
:100280002C102C0883168700013083128706492919
:10029000C501300B9E29861A6329C30A4308023C14
:1002A000031D54295920622943080E3C0318622972
:1002B0004308D7000330D800B420F708031D622993
:1002C0005920C4036429C301061B7C29C40A4408BD
:1002D000023C031D6D29C9207B2944080E3C0318EC
:1002E0007B294408D7000330D800B420F708031D49
:1002F0007B29C920C4037D29C401861B9C29C20A0D
:100300004208023C031D9B29B2188829B2149B297C
:1003100032189329B30A3308043C03189229B21007
:10032000B30132149B29B40A3408033C03189B29F7
:10033000B210B40132109E29861BC2018718AC2965
:10034000BF0A3F08143C0318AC29AC102C088316D4
:10035000870083128714BF010719BA29C00A400811
:10036000143C0318BA292C112C0883168700831219
:100370000715C0013008033C031DE129F701B21A3B
:10038000F714060877060239031DDC29C60A460859
:100390003C3C0318DB298618D4292C102C08831622
:1003A000870083120714DA292C102C088316870083
:1003B00083120710C603DD29C601861CB2128618F7
:1003C000B2160C108A110A122D28CD20CE2A4126F1
:1003D000A0264F224500CC244724541D4F2720003F
:1003E000CC244724541D4F234600D424CD22521D33
:1003F0004F272000D424CD22521D4F234600D02267
:10040000D2294F27BA126400C12AD427CD20D42480
:100410004310CD27C4220001CC244724541D4F276C
:100420002000CC244724541D4F234600D424CD2241
:10043000521D4F272000D424CD22521D4F234600A9
:10044000D022D2294F27BA126400CE244724541058
:10045000CD27C4220001CC244724541D4F2720005F
:10046000CC244724541D4F234600D424CD22521DB2
:100470004F272000D424CD22521D4F234600D022E6
:10048000D2294F27BA126400D3225410D424CD228B
:10049000A0264F224500CE2447245410CD27C42245
:1004A000202AC9264500C32A522945275410D4249E
:1004B000CD2200012010201020102010201020102C
:1004C00020102000201020102010201020102010BC
:1004D0000000D3225410C32A522945275410D42493
:1004E000CD220001C82755290001CD24CE2AD422CF
:1004F0000001D322C3274E220001D3225410CE2460
:1005000047245410CD27C422202AC9264500532A47
:10051000412954004F27AF27462300012010AF2761
:10052000462300014F272F10201000014E30840079
:10053000831300080319A92A0630F800F701F70B06
:100540009F2AF80B9E2A7B30F700F70BA52A800B19
:100550009C2A08008316091083120910831689103B
:10056000831289140000D60183160911831209151C
:10057000B92ABA2A00008316081683125610081AE0
:100580005614831688168312D610881AD61483162A
:10059000081783125611081B5615831688178312E5
:1005A000D611881BD6158316091183120911D82A72
:1005B000D92A00005608F8007808D500D60183161D
:1005C000091183120915E42AE52A0000831608168A
:1005D00083125610081A5614831688168312D610E2
:1005E000881AD6148316081783125611081B56153D
:1005F000831688178312D611881BD6158316091106
:1006000083120911032B042B00005608F800780808
:10061000D400550EF700F030F70577085404F800C1
:100620007808D400D41BAE2AD20803191C2B8316D9
:10063000091083120914202B831609108312091044
:100640000000831689108312891000008316091197
:1006500083120911530ED4000F30D4055408D5006D
:100660005518342B0812352B0816831608128312DE
:10067000D5183C2B88123D2B8816831688128312BE
:100680005519442B0813452B08178316081383129A
:10069000D5194C2B88134D2B88178316881300000F
:1006A0000911831209150330F700F70B552B831638
:1006B00009118312091153080F39D4005408D500C9
:1006C0005518642B0812652B08168316081283121E
:1006D000D5186C2B88126D2B8816831688128312FE
:1006E0005519742B0813752B0817831608138312DA
:1006F000D5197C2B88137D2B88178316881300004F
:100700000911831209150330F700F70B852B8316A7
:1007100009118312091108000130AD008316091078
:100720008312091083168910831289108316091108
:10073000831209112330CE009622C7014708023CDC
:10074000031CD42B0330D5005518A82B0812A92B55
:100750000816831608128312D518B02B8812B12BF5
:1007600088168316881283125519B82B0813B92BD3
:100770000817831608138312D519C02B8813C12BB1
:100780008817831688130000091183120915033096
:10079000F700F70BC92B83160911831209110530D5
:1007A000CE009622C70A9E2B0230D5005518DA2BB0
:1007B0000812DB2B0816831608128312D518E22BB9
:1007C0008812E32B88168316881283125519EA2B98
:1007D0000813EB2B0817831608138312D519F22B75
:1007E0008813F32B881783168813000009118312CE
:1007F00009150330F700F70BFB2B83160911831241
:100800000911C7014708033C031C0F2C470851205E
:10081000C800D2014808D300AA22C70A022C8A15B0
:100820000A12872B4F08013A0319202C033A0319A7
:10083000222C013A0319252C073A0319282C2B2CBA
:10084000D0012C2C4030D0002C2C1430D0002C2C7B
:100850005430D0002C2CD00101304E02D00750086B
:100860008038D100D2015108D300AA2208004D08D7
:100870000C3A0319422C063A03194C2C023A03197C
:10088000532C582CD2010130D300AA220130AD00E4
:100890000230CE0096225D2CAD0A0130CE002D082C
:1008A000CF0012245D2CD2011030D300AA225D2C7F
:1008B0000130D2004D08D300AA22080094138C11F5
:1008C0004F0893000230941B6C2C83161419662C6D
:1008D0000030111B01308312F80008001413831636
:1008E00091159119712C77189112771C9116111688
:1008F000111A782C83121308F80008004F08D00052
:100900000310D00C7830D005500CF700F70C3F30B6
:10091000F70577085007D1004F080F395107F80045
:1009200008004E08CF00D0014F08093C03189D2C49
:100930000A30CF021030D007A02C4F08D007A12CCE
:10094000942C5008F8000800C701C801C901CA0169
:10095000CB01CC01CD01831611141118AD2CD03070
:100960008312CF005E24CF015E2483169114911868
:10097000B72CD1308312CF005E240130F7006E24F3
:1009800078087F39CE00CF007E247808C700013078
:10099000F7006E2478087F39CE00CF007E247808D7
:1009A000C8000130F7006E2478083F39CE00CF0030
:1009B0007E247808C9000130F7006E2478087F395A
:1009C000CE00CF007E247808CA000130F7006E24E4
:1009D00078083F39CE00CF007E247808CB00013064
:1009E000F7006E2478081F39CE00CF007E247808E7
:1009F000CC00F7016E247808CE00CF007E24780862
:100A0000CD00831611151119032D0430F700F70BD3
:100A1000072D0A2D111411180B2DD0308312CF0081
:100A20005E24CF015E244708CE0091247808CE00D2
:100A3000CF005E244808CE0091247808CE00CF0075
:100A40005E244908CE0091247808CE00CF005E24B1
:100A50004A08CE0091247808CE00CF005E244B08CF
:100A6000CE0091247808CE00CF005E244C08CE0042
:100A700091247808CE00CF005E244D08CE0091244A
:100A80007808CE00CF005E24831691149118462D6D
:100A9000D0308312CF005E240730CF005E2483164F
:100AA00011151119512D83128A150A128F2B8316D5
:100AB00011141118592DD0308312CF005E24083044
:100AC000CF005E243908CF005E243A08CF005E24B0
:100AD0003B08CF005E243C08CF005E2400303D1868
:100AE0000130C700CF005E24831611151119762D31
:100AF000831208008316111411187C2DD030831234
:100B0000CF005E240830CF005E2483169114911824
:100B1000872DD1308312CF005E240130F7006E2480
:100B20007808B9000130F7006E247808BA00013067
:100B3000F7006E247808BB000130F7006E247808B7
:100B4000BC000130F7006E247808781C3D1078183E
:100B50003D14831611151119AB2D83124708013965
:100B6000F800781C3D1078183D148A150A12E22B03
:100B70000619C62DB219C62DB215321AC62DBE0AD7
:100B8000AC102C0883168700831287108619D42D89
:100B9000321AD42D3216B219D42DBE032C112C08C2
:100BA0008316870083120711061DDE2D861DDE2D9C
:100BB000B21DDE2D321EDE2DB21132128A150A123E
:100BC0000A2CC9133F30C705831611141118E62DDE
:100BD000D0308312CF005E24CF015E244908CE00BE
:100BE00091247808CA00CF005E244808CE009124E2
:100BF0007808CA00CF005E244708CE009124780808
:100C0000CA00CF005E249030CF005E2483161115F9
:100C10001119082E83128A150A12192C0B08C70005
:100C20008B13831603178C170C140000000083121B
:100C30000313C71B8B1703170C087F390319622E88
:100C40000313C70003170D080313C80003170F0889
:100C50000313C9004708CD003724480803178D0047
:100C60000313490803178F0003130B08CA008B13E3
:100C7000831603178C170C14000000008312031353
:100C8000CA1B8B1703170C0D0E0D7F390319622E2B
:100C90000313C70003170D080313C80003170F0839
:100CA0000313C9004708CD003724480803178D00F7
:100CB0000313490803178F008D0A03198F0A0313C2
:100CC0000E2E0317031308000B08C8008B1383169E
:100CD00003178C170C140000000083120313C81BA9
:100CE0008B1703189B2E03170C087F390313C800BA
:100CF00003170D080313C90003170F080313CA00D5
:100D00004808CD003724490803178D0003134A080B
:100D100003178F0003130B08CB008B1383160317E5
:100D20008C170C140000000083120313CB1B8B17CD
:100D3000C70B9B2EBA2E03170C0D0E0D7F39031314
:100D4000C80003170D080313C90003170F08031386
:100D5000CA004808CD003724490803178D00031343
:100D60004A0803178F008D0A03198F0A0310031313
:100D7000C70B642E08002030481E3030C9004708D9
:100D8000F700C71FCB2EF709F70A7708C7002D30E9
:100D9000C900C81748147808AB018B1BAB178B131D
:100DA0004708D7006430D800B420AB1B8B177708F6
:100DB000C70030307807CA00AB018B1BAB178B1311
:100DC0004708D7000A30D800B420AB1B8B1730304F
:100DD0007707CC0030307807CB004908F700303077
:100DE0004A020319F72EC814C81B48150B2F4908CF
:100DF000CA002030C90030304B020319032F4814B9
:100E0000C81BC8140B2F031D4814031D0B2F4A08C1
:100E1000CB002030CA004819122FC818152F4818C7
:100E2000182F1B2F4908CD0037244A08CD0037243E
:100E30004B08CD0037244C08CD0037240800203063
:100E4000481E3030C9004708F700C71F2F2FF70989
:100E5000F70A7708C7002D30C900C817481478086A
:100E6000AB018B1BAB178B134708D7006430D8003E
:100E7000B420AB1B8B177708C70030307807CA0047
:100E8000AB018B1BAB178B134708D7000A30D80078
:100E9000B420AB1B8B1730307707CC00303078078D
:100EA000CB004908F70030304A0203195B2FC81401
:100EB000C81B48156F2F48196F2F4908CA00C8185A
:100EC000662F30304B020319692F4814C81BC81411
:100ED0006F2F031D4814031D6F2F4A08CB004819BC
:100EE000762FC818792F48187C2F7F2F4908CD00FE
:100EF00037244A08CD0037244B08CD0037244C084E
:100F0000CD00372408000430CE000130CF00122479
:100F1000E53003178D0001308F0003130E260130DA
:100F2000CE000230CF001224071C9E2FEB30031797
:100F30008D0001308F0003130E26A52FF03003170C
:100F40008D0001308F0003130E260C30CE000230CE
:100F5000CF0012243D1CB42FF53003178D00013053
:100F60008F0003130E26BB2FFA3003178D000130BC
:100F70008F0003130E260730CE000330CF0012245B
:100F8000FF3003178D0001308F000310073003136B
:100F9000C70064263E08C7001830C800BB260F30C3
:100FA000CE000430CF0012243608C7000130C8003C
:100FB0001F273A30CD0037243708C7000130C8005A
:080FC0001F278A150A12C32C39
:101000000130CE00CF008A1112248A157D300317DB
:101010008D0002308F008A1103130E268A150130CD
:10102000CE000230CF008A1112248A1587300317B0
:101030008D0002308F008A1103130E268A150F309F
:10104000CE000230CF008A1112248A154530CD001F
:101050008A1137248A154E30CD008A1137248A151B
:101060004430CD008A1137248A150130CE00033078
:10107000CF008A1112248A153908C7000130C80030
:101080008A111F278A153A30CD008A1137248A1514
:101090003A08C7000130C8008A111F278A150E3090
:1010A000CE000330CF008A1112248A153B08C700F6
:1010B0000130C8008A111F278A153A30CD008A11E5
:1010C00037248A153C08C7000130C8008A111F2741
:1010D0008A150830CE000430CF008A1112248A15F8
:1010E0008A3003178D0002308F008A1103130E26F9
:1010F0008A153C30CE008A1196228A153308FB3EB1
:1011000003181929053E21290130CE000330CF00F4
:101110008A1112248A152030CD008A1137248A15AD
:101120002030CD008A1137248A153A30CD008A113B
:1011300037248A153A08C7000130C8008A111F27D2
:101140008A1519290130CE000330CF008A111224EC
:101150008A153908C7000130C8008A111F278A156F
:101160003A30CD008A1137248A152030CD008A11FB
:1011700037248A152030CD008A1137248A15192981
:101180000E30CE000330CF008A1112248A15203091
:10119000CD008A1137248A152030CD008A113724DA
:1011A0008A153A30CD008A1137248A153C08C700C9
:1011B0000130C8008A111F278A1519290E30CE0068
:1011C0000330CF008A1112248A153B08C700013072
:1011D000C8008A111F278A153A30CD008A1137249A
:1011E0008A152030CD008A1137248A152030CD0091
:1011F0008A1137248A1519290830CE000430CF000F
:101200008A1112248A153D1C0F298E3003178D0078
:1012100002308F008A1103130E268A151829923086
:1012200003178D0002308F008A1103130E268A15D2
:1012300019291430CE008A1196228A158A150A12AD
:101240008D290A148A100A1182078428A228C0282E
:10125000DE28FC28B2188A290430CE000130CF00E5
:101260008A1112248A15443003178D0002308F0032
:101270008A1103130E268A150430CE000330CF00E6
:101280008A1112248A154B3003178D0002308F000B
:101290008A1103130E268A150530CE000430CF00C4
:1012A0008A1112248A15533003178D0002308F00E3
:1012B0008A1103130E268A153C30CE008A1196221D
:1012C0008A15321874290430CE000330CF008A11F9
:1012D00012248A155A3003178D0002308F008A11AC
:1012E00003130E268A1584290530CE000430CF0062
:1012F0008A1112248A15623003178D0002308F0084
:101300008A1103130E268A151430CE008A119622F4
:101310008A15412A32188E290028412A0330CE002E
:101320000130CF008A1112248A15693003178D000D
:1013300002308F008A1103130E268A150130CE0069
:101340000330CF008A1112248A15723003178D00E2
:1013500002308F008A1103130E268A150730CE0043
:101360000330CF008A1112248A15753003178D00BF
:1013700002308F008A1103130E268A150F30CE001B
:101380000330CF008A1112248A15793003178D009B
:1013900002308F008A1103130E268A150230CE0008
:1013A0000430CF008A1112248A153608C700013094
:1013B000C8008A111F278A150930CE000430CF00DB
:1013C0008A1112248A153708C7000130C8008A1113
:1013D0001F278A151130CE000430CF008A11122445
:1013E0008A153808C7000130C8008A111F278A15DE
:1013F0003C30CE008A1196228A1534080319072A38
:10140000013A0319192A033A03192B2A3C2A0230FC
:10141000CE000430CF008A1112248A152030CD006E
:101420008A1137248A152030CD008A1137248A1575
:101430003C2A0930CE000430CF008A1112248A15CC
:101440002030CD008A1137248A152030CD008A1132
:1014500037248A153C2A1130CE000430CF008A117F
:1014600012248A152030CD008A1137248A152030A5
:10147000CD008A1137248A151430CE008A119622A5
:101480008A158A150A12C32C0230CE000130CF0013
:101490008A1112248A15043003178D0002308F0040
:1014A0008A1103130E268A150130CE000230CF00B8
:1014B0008A1112248A15071C672A0C3003178D0025
:1014C00002308F008A1103130E268A15702A1130FC
:1014D00003178D0002308F008A1103130E268A1520
:1014E0000C30CE000230CF008A1112248A153D1C28
:1014F000832A163003178D0002308F008A110313E0
:101500000E268A158C2A1B3003178D0002308F009F
:101510008A1103130E268A150730CE000330CF0040
:101520008A1112248A15203003178D0002308F0093
:10153000031007300313C7008A1164268A153E087A
:10154000C7001830C8008A11BB268A150130CE00AA
:101550000430CF008A1112248A153608C7000130E2
:10156000C8008A111F278A153A30CD008A11372406
:101570008A153708C7000130C8008A111F278A154D
:101580003A30CD008A1137248A153808C700013057
:10159000C8008A111F278A158A150A12C32C043025
:1015A000CE000130CF008A1112248A15253003178E
:1015B0008D0002308F008A1103130E268A15013028
:1015C000CE000230CF008A1112248A15071CF22A9D
:1015D0002B3003178D0002308F008A1103130E2663
:1015E0008A15FB2A303003178D0002308F008A11D4
:1015F00003130E268A150C30CE000230CF008A115C
:1016000012248A153D1C0E2B353003178D00023035
:101610008F008A1103130E268A15172B3A300317F1
:101620008D0002308F008A1103130E268A150730B1
:10163000CE000330CF008A1112248A153F300317E1
:101640008D0002308F00031007300313C7008A118A
:1016500064268A153E08C7001830C8008A11BB26C8
:101660008A150F30CE000430CF008A1112248A155B
:101670003608C7000130C8008A111F278A153A3082
:10168000CD008A1137248A153708C7000130C800F9
:101690008A111F278A158A150A12C32C03081F39BD
:1016A0008300FF30AC00AC152C0883168700831232
:1016B0002C162C08831687000C30930028308312D8
:1016C00094008316941314138312AF01AE01B0017A
:1016D000B1013210B2103211B301B401B501B2112F
:1016E00032120130BE00BF01C001C101C201C301FD
:1016F000C401C501B216C60183161F149F141F151D
:101700009F1107309C0083138A1183128C2B8A153A
:101710000C30CD008A1137248A158A11A42C8A1521
:10172000831611141118922BD0308312CF008A1116
:101730005E248A15CF018A115E248A1583169114BE
:101740009118A02BD1308312CF008A115E248A1504
:101750000130F7008A116E248A1578087F39C70096
:10176000CF008A117E248A157808B8000130F7006E
:101770008A116E248A1578087F39C700CF008A1134
:101780007E248A157808B700F7018A116E248A151D
:1017900078083F39C700CF008A117E248A1578085F
:1017A000B600831611151119D32B17308312B90007
:1017B000BA010730BB00BC013D148A1157258A15B8
:1017C0008A117A2D8A15FF308316860083128600CF
:1017D0002C102C088316870083120710AC102C08DD
:1017E00083168700831287142C112C088316870018
:1017F00083120715A53090008E01CF308F002C305A
:101800008E0000000C1083160C14C03083128B0461
:101810008A11B82D8A15300B322C35083502031980
:101820001C2C3608C7003708C8003808C9008A11C0
:10183000E12D8A153408B500F7013219F714320882
:10184000770602390319312C0C30CD008A11372468
:101850008A15321C2E2C8A1157258A153211B2187E
:101860003215632C3008023C031D532CBE080319AB
:10187000402C2C102C088316870083120714462C4A
:101880002C102C0883168700831207103D1C522C45
:1018900036083902031D522C37083A02031D522C18
:1018A0000330B000632C3008033C031D632C3D1C47
:1018B000632C36083B02031D632C37083C02031DD2
:1018C000632C0230B000831611141118652CD0302F
:1018D0008312CF008A115E248A15CF018A115E24FB
:1018E0008A15831691149118732CD1308312CF006E
:1018F0008A115E248A150130F7008A116E248A1538
:1019000078087F39C700CF008A117E248A157808AD
:10191000B8000130F7008A116E248A1578087F39E3
:10192000C700CF008A117E248A157808B700F70116
:101930008A116E248A1578083F39C700CF008A11B2
:101940007E248A157808B600831611151119A62C65
:101950008312300831020319B42C0C30CD008A11E7
:1019600037248A153008B1003008FC3E0318C32C18
:10197000043EC52C8A11832F8A15C32C2A29C32C17
:10198000442AC32CCF2A082C63000A108A100A1597
:0A1990008207BA2CBE2CC02CC22C1A
:02400E003A3F37
:00000001FF
;PIC16F877A
;CRC=8694  CREATED="21-Nov-22 00:15"
